:100000000C94FE1D0C94281E0C94281E0C94281E83
:100010000C94281E0C94281E0C94281E0C94281E48
:100020000C94281E0C94281E0C94281E0C94281E38
:100030000C94281E0C9486690C94281E0C94281E7F
:100040000C94281E0C942B680C94D1D40C94281E6C
:100050000C9401680C94D1670C94281E0C94281EF3
:100060000C94281E0C94281E0C94281E0C94281EF8
:100070000C94281E0C94281E0C94281E0C94281EE8
:100080000C94281E0C94281E0C94281EF121F62195
:10009000FB2107223B223B2213221B2223222F2259
:1000A00004501D501D501D501D501D501D501D5001
:1000B0001D501D501D501D501D501D501D501D50D8
:1000C0001D501D501D501D501D501D501D50C64F20
:1000D000D14FB04FA54F4F4F5A4FC74EBB4F844FD4
:1000E0008F4FDC4FE74FD84EB44EF24F794F1D5033
:1000F0009A4F6E4F654F1D501D501D502E4F394F5A
:10010000444F1D501D501D501D501D501D50C64FB9
:10011000D14FB04FA54F4F4F5A4FC74EBB4F844F93
:100120008F4FDC4FE74FD84EB44EF24F794F1D50F2
:100130009A4F6E4F654F1D501D501D502E4F394F19
:10014000444FF8ABFBABEEABF2AB12AC12ACFFAB77
:1001500003AC09AC0DAC084AD73B3BCE016E84BC66
:10016000BFFDC12F3D6C74319ABD56833DDA3D0011
:10017000C77F11BED9E4BB4C3E916BAAAABE00005A
:1001800000803F05A84CCDB2D44EB93836A9020C38
:1001900050B9918688083CA6AAAA2ABE0000008011
:1001A0003F004E414E494E495459494E46CDCCCC64
:1001B0003D0AD7233C17B7D13877CC2B329595E63B
:1001C000241FB14F0A000020410000C84200401C1B
:1001D0004620BCBE4CCA1B0E5AAEC59D74456E640B
:1001E0002066696C65206C69737400426567696E8E
:1001F0002066696C65206C697374005344207072CA
:10020000696E74696E67206279746520004E6F7440
:10021000205344207072696E74696E67005772696A
:1002200074696E6720746F2066696C653A20006F90
:1002300070656E206661696C65642C2046696C652A
:100240003A20004372656174696F6E206661696C63
:100250006564004469726563746F727920637265C6
:100260006174656400657874727564657220636F8B
:100270006F6C6572207370656564205B302D32355C
:10028000355D0064697374616E636520746F2072FC
:10029000657472616374207768656E206865617447
:1002A000696E67205B6D6D5D0074656D702E2066F4
:1002B0006F722072657472616374696F6E20776803
:1002C000656E2068656174696E67205B435D0074CC
:1002D000656D702E2073746162696C697A65207433
:1002E000696D65205B735D005A2D6F66667365747A
:1002F000205B73746570735D00592D6F666673655E
:1003000074205B73746570735D00582D6F6666733F
:100310006574205B73746570735D00504944206D93
:1003200061782076616C7565205B302D3235355DE6
:100330000050494420442D6761696E0050494420B3
:10034000492D6761696E0050494420502D676169ED
:100350006E2F646561642D74696D65005049442099
:100360006472697665206D696E005049442064723C
:10037000697665206D61780068656174206D616ED5
:1003800061676572205B302D335D00616363656C6E
:1003900065726174696F6E205B6D6D2F735E325D87
:1003A000007374617274206665656472617465209F
:1003B0005B6D6D2F735D006D61782E2066656564E1
:1003C00072617465205B6D6D2F735D007374657071
:1003D0007320706572206D6D005265747261637474
:1003E000696F6E20756E646F20737065656400457B
:1003F0007874726120657874727573696F6E206F9E
:100400006E20756E646F2072657472616374205B18
:100410006D6D5D0052657472616374696F6E207AF0
:100420002D6C696674205B6D6D5D00526574726140
:100430006374696F6E207370656564205B6D6D2FEA
:10044000735D0052657472616374696F6E206C65D0
:100450006E677468205B6D6D5D00456E61626C65F2
:100460002072657472616374696F6E20636F6E765B
:10047000657273696F6E205B302F315D0042656479
:1004800020504944206D61782076616C7565205B51
:10049000302D3235355D004265642050494420449A
:1004A0002D6761696E004265642050494420492DE2
:1004B0006761696E004265642050494420502D6791
:1004C00061696E0042656420504944206472697617
:1004D00065206D696E004265642050494420647255
:1004E000697665206D6178004265642048656174B5
:1004F000204D616E61676572205B302D335D004178
:1005000075746F6C6576656C2061637469766520BF
:1005100028312F3029005A2D70726F626520626574
:100520006E64696E6720636F7272656374696F6E63
:100530002043205B6D6D5D005A2D70726F626520E7
:1005400062656E64696E6720636F72726563746959
:100550006F6E2042205B6D6D5D005A2D70726F6270
:10056000652062656E64696E6720636F7272656391
:1005700074696F6E2041205B6D6D5D005A2D707245
:100580006F6265205933205B6D6D5D005A2D70726E
:100590006F6265205833205B6D6D5D005A2D70725F
:1005A0006F6265205932205B6D6D5D005A2D70724F
:1005B0006F6265205832205B6D6D5D005A2D707240
:1005C0006F6265205931205B6D6D5D005A2D707230
:1005D0006F6265205831205B6D6D5D005A2D707221
:1005E0006F6265206F66667365742079205B6D6D40
:1005F0005D005A2D70726F6265206F666673657458
:100600002078205B6D6D5D005A2D70726F626520E1
:10061000782D792D7370656564205B6D6D2F735D2A
:10062000005A2D70726F6265207370656564205B7F
:100630006D6D2F735D004D61782E207A2D70726F75
:100640006265202D2062656420646973742E205BCE
:100650006D6D5D005A2D70726F6265206865696707
:100660006874205B6D6D5D00436F6174696E672017
:10067000746869636B6E657373205B6D6D5D005AA2
:100680002D617869732074726176656C2061636393
:10069000656C65726174696F6E205B6D6D2F735E42
:1006A000325D00592D617869732074726176656CD2
:1006B00020616363656C65726174696F6E205B6D48
:1006C0006D2F735E325D00582D61786973207472EE
:1006D0006176656C20616363656C65726174696FD6
:1006E0006E205B6D6D2F735E325D005A2D617869EF
:1006F0007320616363656C65726174696F6E205B02
:100700006D6D2F735E325D00592D617869732061C4
:100710006363656C65726174696F6E205B6D6D2FCC
:10072000735E325D00582D61786973206163636583
:100730006C65726174696F6E205B6D6D2F735E32D4
:100740005D005A206261636B6C617368205B6D6D44
:100750005D0059206261636B6C617368205B6D6D35
:100760005D0058206261636B6C617368205B6D6D26
:100770005D005A206D6178206C656E677468205B3F
:100780006D6D5D0059206D6178206C656E677468D1
:10079000205B6D6D5D0058206D6178206C656E6723
:1007A0007468205B6D6D5D005A206D696E20706FFE
:1007B00073205B6D6D5D0059206D696E20706F73E5
:1007C000205B6D6D5D0058206D696E20706F732029
:1007D0005B6D6D5D004D61782E205A2D6A65726BE0
:1007E000205B6D6D2F735D004D61782E206A657200
:1007F0006B205B6D6D2F735D005A2D6178697320DE
:10080000686F6D696E6720666565647261746520E6
:100810005B6D6D2F735D00592D6178697320686F72
:100820006D696E67206665656472617465205B6DD5
:100830006D2F735D00582D6178697320686F6D6945
:100840006E67206665656472617465205B6D6D2FEF
:10085000735D005A2D61786973206D61782E206672
:1008600065656472617465205B6D6D2F735D005901
:100870002D61786973206D61782E206665656472DC
:10088000617465205B6D6D2F735D00582D61786913
:1008900073206D61782E20666565647261746520D1
:1008A0005B6D6D2F735D005A2D61786973207374D1
:1008B00065707320706572206D6D00592D617869C7
:1008C0007320737465707320706572206D6D0058AD
:1008D0002D61786973207374657073207065722060
:1008E0006D6D0053746F7020737465707065722045
:1008F000616674657220696E616374697669747982
:10090000205B6D732C303D6F66665D004D61782E07
:1009100020696E6163746976652074696D65205B1A
:100920006D732C303D6F66665D005072696E746544
:100930007220616374697665205B735D0046696C43
:10094000616D656E74207072696E746564205B6D94
:100950005D004261756472617465004C616E67751B
:1009600061676500504944204175746F74756E6508
:10097000206661696C6564212074696D656F7574AA
:1009800000504944204175746F74756E652066612E
:10099000696C6564212054656D706572617475724F
:1009A0006520746F6F206869676800204B643A2087
:1009B00000204B693A2000204B703A200020436C05
:1009C000617373696320504944002054753A2000D4
:1009D000204B753A2000206D61783A2000206D6927
:1009E0006E3A200020643A200020626961733A2048
:1009F00000504944204175746F74756E652073749E
:100A0000617274004E6F2063617365206C69676862
:100A10007473004D617854656D703A004469616D7E
:100A2000657465723A00416363656C6572617469EF
:100A30006F6E3A004D617853706565643A004A659F
:100A4000726B3A004D617842656454656D703A008E
:100A50005072696E746572547970653A436172744C
:100A6000657369616E005A54726176656C416363A7
:100A7000656C3A005954726176656C416363656CCC
:100A80003A005854726176656C416363656C3A0054
:100A90005A5072696E74416363656C3A00595072C2
:100AA000696E74416363656C3A00585072696E7484
:100AB000416363656C3A005A53697A653A00595349
:100AC000697A653A005853697A653A005A4D6178F7
:100AD0003A00594D61783A00584D61783A005A4DC4
:100AE000696E3A00594D696E3A00584D696E3A0088
:100AF00052657472616374696F6E556E646F537082
:100B00006565643A0052657472616374696F6E550D
:100B10006E646F45787472614C6F6E674C656E677A
:100B200074683A0052657472616374696F6E556ED1
:100B3000646F45787472614C656E6774683A0052F0
:100B4000657472616374696F6E5A4C6966743A00B9
:100B500052657472616374696F6E53706565643A4F
:100B60000052657472616374696F6E4C6F6E674C8E
:100B7000656E6774683A0052657472616374696F78
:100B80006E4C656E6774683A004A65726B5A3A003B
:100B90004A65726B58593A005072696E746C696E8E
:100BA0006543616368653A00454550524F4D3A00D0
:100BB0004175746F6C6576656C3A005A50726F625D
:100BC000653A00436173654C69676874733A005312
:100BD0007570706F72744C6F63616C46696C616D97
:100BE000656E746368616E67653A00537570706F07
:100BF00072744731304731313A005A486F6D65445D
:100C000069723A0059486F6D654469723A005848F4
:100C10006F6D654469723A00536F667477617265EF
:100C2000506F7765725377697463683A004C434438
:100C30003A0046616E323A300046616E3A005344E3
:100C4000436172643A004865617465644265643A60
:100C5000004D6978696E6745787472756465723A9B
:100C6000004E756D45787472756465723A00496E10
:100C70007075744275666665723A00426175647299
:100C80006174653A00436F6E666967757261746975
:100C90006F6E20726573657420746F206465666181
:100CA000756C74732E00696E666F3A436F6E74696B
:100CB0006E75652066726F6D20666174616C20735D
:100CC00074617465000054657374696E67206661B1
:100CD00074616C206572726F720029203D20002CB7
:100CE0000042656E64696E672061742028004A6165
:100CF0006D20646562756767696E673A00436F6E61
:100D000066696775726174696F6E206C6F61646586
:100D1000642066726F6D20454550524F4D2E004342
:100D20006F6E66696775726174696F6E2073746F38
:100D300072656420746F20454550524F4D2E00530C
:100D40006574204D6963726F7374657070696E6746
:100D500000436F6C6420657874727573696F6E20E0
:100D6000646973616C6C6F77656400436F6C6420B9
:100D7000657874727573696F6E20616C6C6F7765DE
:100D8000640054726967676572696E672077617481
:100D90006368646F672E20496620616374697661B9
:100DA0007465642C20746865207072696E74657255
:100DB0002077696C6C2072657365742E00576174BE
:100DC0006368646F672064697361626C6564004185
:100DD00075746F726574726163743A00205A4A6563
:100DE000726B3A004A65726B3A0020746F200053B0
:100DF000657420766F6C756D6574726963206578B3
:100E000074727573696F6E20666F72206578747284
:100E100075646572200044697361626C6564207654
:100E20006F6C756D65747269632065787472757323
:100E3000696F6E20666F7220657874727564657272
:100E400020004D31313420004649524D5741524522
:100E50005F4E414D453A52657065746965725F3009
:100E60002E39322E39204649524D574152455F5551
:100E7000524C3A68747470733A2F2F6769746875AE
:100E8000622E636F6D2F72657065746965722F5283
:100E9000657065746965722D4669726D77617265FA
:100EA0002F2050524F544F434F4C5F564552534999
:100EB0004F4E3A312E30204D414348494E455F5404
:100EC0005950453A4D656E64656C204558545255ED
:100ED0004445525F434F554E543A31205245504598
:100EE000544945525F50524F544F434F4C3A330090
:100EF00050696E2063616E206E6F7420626520738E
:100F00006574206279204D34322C20697320696E1B
:100F10002073656E7369746976652070696E7321DC
:100F200020002069732000496C6C6567616C205358
:100F30002076616C756520666F72204D343200201A
:100F4000746F2000536574206F75747075743A2047
:100F50000000010F150E12FE16170E13FF03021AE2
:100F600014FF1BFF0D0A01000E07061F0000000002
:100F70000000008900000000000000008800000060
:100F80000000000000860000000000000000850056
:100F9000750F6C0F870F7E0F456E676C6973680065
:100FA0000358040200900F0320040200940F000075
:100FB000042604400096000000042204400095002E
:100FC0000000044C040000BB000000044D040000BD
:100FD000BC000000042E04000090000000042A045D
:100FE00000008F000000042B0400008E00000004AD
:100FF0002C0400008D00000004290400008C000077
:101000000004130400005500000004120400005402
:101010000000000411040000530000000416040046
:1010200000510000000415040000500000000414EA
:101030000400004F000000040F040000380000000E
:10104000040E04000037000000040D040000350009
:101050000000040C04000034000000040B04000035
:1010600033000000040A04000031000000040904F9
:1010700000003000000004080400002F00980F0357
:10108000A42600000000000003B2040000D000000D
:101090000002A00F00008700000002A70F000084DC
:1010A00000000004100400008B00F60FED0FE40FA9
:1010B000DB0FD20FC90FC00FD712CE12C512BC1250
:1010C000B312AA12B70FAE0FA1122C1023101A10D0
:1010D00011100810FF0F74106B106210591050108F
:1010E00047103E1035107D10A11098108F108610FB
:1010F0000200001000AA100200000600CA10020040
:10110000000800D6100200000100E61002000004F2
:1011100000E810000003070400003B000000030685
:101120000400003A00000002F01000000F00000070
:1011300002F71000004E00000002FE10000039000F
:1011400000000205110000E4000000020C11000084
:101150008A00000003820400000A010000038104E9
:1011600000003F00000003800400003E0000000378
:101170007F0400003D000000037E0400003C0000EE
:101180000004BD040010E300000003B9040010E1F6
:1011900000000003B8040010E000000003B60400E3
:1011A00010DF00000003B5040010DE00000003BEE5
:1011B000040010DD00000003B7040010DC00000094
:1011C00003B4040000D2000000031E0400008300EA
:1011D0000000031D04000082000000031C04000046
:1011E00081000000031B04000080000000031A04BB
:1011F00008007F00000004520400007E000000048C
:10120000B60F00000901000004B50F00000801003E
:101210000004B40F0000070100000000000000F20D
:101220000000000000000000AB0000000000000013
:10123000007000000000000000006F000000035478
:101240002402000300000003E80300000400000083
:101250000100000000C9004911401137112E11256D
:1012600011F1161C11131176116D1164115B1152DD
:1012700011B511AC11A3119A11911188117F11F4BC
:1012800011EB11E211D911D011C711BE110F1206C5
:1012900012FD1133122A12211218124E1245123C5D
:1012A000120000042F0400009B000000042604200C
:1012B000009A000000042504200099000000042486
:1012C0000420009800000004230420009700000080
:1012D000042204200094000000042D040000930068
:1012E0000200000800571202000005006712020009
:1012F000000700711202000007007F1202000003C5
:10130000008D1203F0030400931202000003009BFF
:101310001200000000000000F700000000000000C4
:1013200000DA00D712CE12C512BC12B312AA12A153
:1013300012000002E01200000D00000002E712009F
:10134000001100000002F81700001000000002EE7B
:10135000120010D900000002F51200007D0000000C
:1013600002C01700000F00000002B91700000E00B5
:10137000000002C71700000B000000000000000082
:10138000E00000000000000000DA000000000000A3
:101390000000DF0000000000000000DA0000000094
:1013A00000000000E10000000000000000DA000082
:1013B000000000000000DE0000000000000000DA75
:1013C0000000000000000000DD0000000000000040
:1013D00000DA0000000000000000DC000000000057
:1013E000000000DA0000000000000000CF00000054
:1013F0000000000000CE0000000000000000CD0052
:1014000000000000000000CC00000002FC12000000
:101410000601000002E31700002100000002CE17C1
:1014200000002200000002EA1700001F0000000276
:10143000D51700002000000002F11700001D000079
:101440000002DC1700001E0000000300040010165C
:1014500000000003FF0300101500000003FE03005E
:10146000101400000003440400002E0000000203DA
:1014700013000023000000033A04000028000000CD
:101480000462040000250000000461040000240040
:10149000000003430400101C00000003310400108E
:1014A0001B00000003380400001A0000000347047A
:1014B00000001800000003370400001700000003BC
:1014C00088130000CB0000000448040000B10000B5
:1014D00000041F040000B00000000457040000CA0C
:1014E00000000003FD0300101300000000000000D6
:1014F000006E00000000000000006D000000000011
:101500000000006C00000000000000006B00000004
:1015100000000000006A00000000000000006900F8
:101520000000000000000068000000000000000053
:1015300067000000000000000066000000000000DE
:1015400000006500000000000000006400000000D2
:1015500000000000630000000000000000620000C6
:1015600000000000000061000000000000000060BA
:1015700000000000000000005F000000000000000C
:10158000005E00000000000000005D0000000000A0
:101590000000005C00000000000000005B00000094
:1015A00000000000005A0000000000000000590088
:1015B00000000000000000580000000000000000D3
:1015C0005700000003F40301024D00000003F9037B
:1015D00000014C00000003F80301004B0000000272
:1015E0000A130200C900000003F70304004A0000C8
:1015F0000003F60302044900000003F5030102485A
:1016000000000003E80300000A00000000000000E2
:1016100000A80000000000000000A700000000007B
:10162000000000A60000000000000000A5001A1342
:101630001113020000080023137013F81567135EDE
:101640001355134C1343133A133113821379139424
:10165000138B13A6139D13B813AF13CA13C113DC56
:1016600013D3130014F713EE13E513E1145A1451B6
:101670001448143F1436142D1424141B1412146C23
:1016800014091487147E1475146C146314E114D8AF
:1016900014CF14C614BD14B414AB14A2149914902E
:1016A000140515FC14F314EA142915201517150E4A
:1016B000154D1544153B153215711568155F1556F6
:1016C0001595158C1583157A15B915B015A7159EA6
:1016D00015F815EF15E615DD15D415CB15C2150156
:1016E0001613160A1625161C160003102702002EC4
:1016F0001600000232160000A2002F2F2061637432
:10170000696F6E3A726573756D650044656C6574DA
:10171000696F6E206661696C65640046696C65205E
:1017200064656C6574656400020000090039160385
:10173000102702004B1603102702004F1603102734
:101740000200531603102702005716031027020049
:101750005B1603102702005F16526571756573747E
:1017600050617573653A00058813040063162F2FC6
:1017700020616374696F6E3A706175736500696D9D
:10178000706F7274616E743A2046696C616D656E3B
:1017900074206368616E6765207265717569726532
:1017A0006421004A616D20636F6E74726F6C2064F7
:1017B000697361626C65643A000200000C006B168C
:1017C000020000050083160200000A008D1603FCCB
:1017D000030400A11603FB030400A91603FA030483
:1017E00000B11603EF030400B91603EE030400C1B1
:1017F0001603ED030400C9160200000700D116010C
:1018000000000100DF160310270200E11603102775
:101810000200E51655495F414354494F4E5F484F1A
:101820004D455F5A200055495F414354494F4E5F33
:10183000484F4D455F59200055495F414354494F3A
:101840004E5F484F4D455F58200055495F41435416
:10185000494F4E5F484F4D45414C4C20002063207E
:101860003D20002062203D2000706C616E653A20B2
:1018700061203D20004175746F6C6576656C696E02
:10188000672064697361626C6564004175746F6C94
:101890006576656C696E6720656E61626C65640073
:1018A00000004175746F6C6576656C206D617472B3
:1018B00069782072657365740044697361626C694C
:1018C0006E6720616C6C206865617465727320645A
:1018D000756520746F206465746563746564207336
:1018E000656E736F72206465666563742E00206494
:1018F00065672E204300206D6561737572656420F5
:10190000004572726F723A436F756C64206E6F742B
:1019100020686F6C642074656D7065726174757297
:10192000652000206D73002061667465722000459B
:1019300072726F723A54656D702E207261697365B0
:101940006420746F20736C6F772E2052697365204A
:101950003D20004F6E652068656174657220736577
:10196000656D73206465636F75706C656420667265
:101970006F6D20746865726D6973746F72202D20AD
:1019800064697361626C696E6720616C6C20666F5C
:1019900072207361666574792100486561746572AF
:1019A000206465636F75706C65640048656174657B
:1019B0006420626564206578636565646564206D94
:1019C00061782074656D706572617475726521004F
:1019D00020453A00205A3A00583A0020403A002068
:1019E00042403A00205241570020423A00202F0046
:1019F000543A0053706565644D756C7469706C7908
:101A00003A00466C6F774D756C7469706C793A006A
:101A100046616E73706565643A00206D696E0020E2
:101A2000686F7572732000206461797320005072B2
:101A3000696E74696E672074696D653A006D200087
:101A40005072696E7465642066696C616D656E7450
:101A50003A00526573656E643A006F6B20004D6901
:101A60007373696E67206C696E656E756D62657201
:101A70000020676F7420004572726F723A6578704B
:101A80006563746564206C696E652000736B6970B2
:101A900020006F6B004563686F3A00446F6E6520ED
:101AA0007072696E74696E672066696C6500534474
:101AB000206572726F7220666978656400534420F5
:101AC0006572726F7220646964206E6F7420726533
:101AD000636F76657221005344205265616420452E
:101AE00072726F7200534420726561642065727275
:101AF0006F72007761697400466F726D6174206562
:101B000072726F7200205200204A0020490020505B
:101B100000205300204600204500205A0020590094
:101B2000205800205072696E7465722073746F7053
:101B300070656420616E64206865617465727320ED
:101B400064697361626C65642064756520746F20DC
:101B500074686973206572726F722E2046697820EE
:101B60006572726F7220616E642072657374617247
:101B7000742077697468204D3939392E0066617494
:101B8000616C3A005A2D70726F62652073746174D3
:101B9000653A007A5F6D696E3A004C20004820007B
:101BA000795F6D696E3A00785F6D696E3A00656EB7
:101BB0006473746F7073206869743A2000446562BE
:101BC00075674C6576656C3A005072696E74657223
:101BD0004D6F64653A434E43005072696E7465728E
:101BE0004D6F64653A4C61736572005072696E7432
:101BF00065724D6F64653A46464600686F6D654193
:101C000078697320005072696E7465722073657410
:101C100020696E746F206472792072756E206D6F0A
:101C2000646520756E74696C20726573746172747A
:101C30002100206D61726B6564206465636F75704F
:101C40006C656400206D61726B6564206465666517
:101C50006374003A20776F726B696E67003A207484
:101C6000656D702073656E736F7220646566656361
:101C700074004F746865723A006865617465642029
:101C8000626564000000420FA1071605D0030D0332
:101C90008B022E02E801B2018601630145012C018D
:101CA00017010401F4000000000000000000000023
:101CB00000000000000024F403D950C38EB1C2A27A
:101CC0003D96828B3582127AE372816CCB66A86175
:101CD000015DC758EB546151204E1E4B5648C1451B
:101CE00059431A41013F093D2F3B7139CD374036E9
:101CF000C93465331432D430A32F802E6B2D632C5E
:101D0000672B752A8E29B028DC2710274B268F25B4
:101D1000D9242B248223E0224322AC211A218D20B6
:101D20000420801F001F841E0C1E971D261DB81C3A
:101D30004E1CE61B821B201BC11A641A0A1AB21918
:101D40005D190A19B9186A181C18D1178817401795
:101D5000FA16B51673163116F115B31576153A1530
:101D60000015C7148F1458142214EE13BA138813D5
:101D700056132513F612C71299126C12401215123F
:101D8000EB11C1119811701148112111FB10D610DF
:101D9000B1108D106910461024100210E10FC00F11
:101DA000A00F800F610F420F230F060FE80ECB0E1E
:101DB000AF0E930E770E5C0E410E270E0D0EF30D37
:101DC000DA0DC10DA80D900D780D600D490D320D85
:101DD0001B0D050DEF0CD90CC30CAE0C990C850C2A
:101DE000700C5C0C480C350C210C0E0CFB0BE80B3A
:101DF000D60BC40BB20BA00B8E0B7D0B6B0B5A0BCF
:101E00004A0B390B290B180B080BF80AE90AD90AF7
:101E1000CA0ABB0AAC0A9D0A8E0A800A710A630AC2
:101E2000550A470A390A2C0A1E0A110A040AF70938
:101E3000EA09DD09D009C409B709AB099F0992096C
:101E400087097B096F09630958094C09410936095B
:101E50002B09200915090A090009F508EB08E00813
:101E6000D608CC08C208B808AE08A4089A0890089A
:101E700087087D0874086B08610858084F084608F1
:101E80003D0834082C0823081A081208090801081C
:101E9000F807F007E807E007D807D007C807C0072A
:101EA000B807B007A807A107802500004038000048
:101EB000004B00008070000000960000C0DA0000B7
:101EC00000E10000002C010008B2010000C2010086
:101ED00000F401000084030090D0030000E8030038
:101EE0000008070020A1070000100E0040420F006C
:101EF00060E316000000000055495F414354494F1C
:101F00004E5F45504F534954494F4E200055495F4D
:101F1000414354494F4E5F5A504F534954494F4ED5
:101F20005F46415354200055495F414354494F4E49
:101F30005F59504F534954494F4E5F4641535420C7
:101F40000055495F414354494F4E5F58504F5349E4
:101F500054494F4E5F46415354200055495F414319
:101F600054494F4E5F5A504F534954494F4E2000E9
:101F700055495F414354494F4E5F59504F5349545F
:101F8000494F4E200055495F414354494F4E5F58D9
:101F9000504F534954494F4E200020002F00496EA6
:101FA00076616C69642061726300473332200020DF
:101FB00061745A3A0043757272656E745A3A0050F1
:101FC000726F62696E6720686164207265747572F1
:101FD0006E6564206572726F7273202D2061757456
:101FE0006F6C6576656C696E672063616E63656CA6
:101FF00065642E0052656C617469766520706F733C
:102000006974696F6E696E67004162736F6C757495
:102010006520706F736974696F6E696E670047330E
:1020200032206C6576656C696E67206661696C65E7
:10203000642100473239206C6576656C696E6720D3
:102040006661696C65642100473239206C6576658C
:102050006C696E67206661696C656421004732397E
:10206000200041646A7573746564207A206F726918
:1020700067696E005A2D70726F62652061766572B5
:10208000616765206865696768743A00556E6B6EB4
:102090006F776E20636F6D6D616E643A00496E6696
:1020A0006F3A004572726F723A00494E46004E41D7
:1020B0004E0050726F746F636F6C20766572736937
:1020C0006F6E206368616E6765642C20757067723F
:1020D0006164696E67005472616E73666F726D61E0
:1020E00074696F6E206D61747269783A0045787416
:1020F000722E004550523A3320004550523A322059
:10210000007D1000002100240027002A000000228A
:1021100000250028002B00000020002300260029B5
:102120000002020202020202020404040404040483
:10213000040303030303030303010101010101017C
:102140000101020408102040800102040810204010
:102150008001020408102040808040201008040202
:1021600001000000010200090A0000000004030849
:102170000700000000000000000000000000000058
:1021800000536F66747761726520526573657400E1
:102190005761746368646F672052657365740042A9
:1021A000726F776E206F7574205265736574004589
:1021B000787465726E616C20526573657400506F3F
:1021C000776572557000070601110A0411040A119F
:1021D00011001C1F11111F0000040A0A0A0E1F1F04
:1021E0000E001F1111111F0000001F1F1F1F1F00D5
:1021F00000040A040000000000040E150404041C7E
:1022000000414E455400413800526570657469655F
:102210007220302E39322E390046726565205241C7
:102220004D3A00820000010001214E656564732073
:102230006C616E67756167652073656C6563746951
:102240006F6E007374617274007C3C3E5E2B3D3F88
:102250002F5B5D3B2C2A225C00000020646563201C
:1022600000206465662000040003006572726F72CE
:102270002077726974696E6720746F2066696C6577
:1022800000504944204175746F74756E652066690D
:102290006E6973686564202120506C6163652074E9
:1022A0006865204B702C204B6920616E64204B6464
:1022B00020636F6E7374616E747320696E2074682E
:1022C0006520436F6E66696775726174696F6E2E03
:1022D00068206F7220454550524F4D00446F6E6527
:1022E00020736176696E672066696C652E00436FA6
:1022F0006E6669673A00534420696E6974206661AE
:10230000696C0046696C652073656C65637465640F
:10231000002053697A653A0046696C65206F7065E4
:102320006E65643A0066696C652E6F70656E206636
:1023300061696C6564000400501D7C00D009A40034
:102340001009CC008008F40010081C01B8074401F3
:1023500068076C0128079401E806BC01B806E4018F
:1023600088060C026006340238065C0218068402F5
:10237000F005AC02D805D402B805FC029805240388
:10238000800574035005C403280514040005640483
:10239000D804B404B0042C058004A40558041C0619
:1023A0002804940600040C07D803AC07A8034C08C3
:1023B0007803EC0848038C092003A40AD0021C0B04
:1023C000A802AC0C2802FC0C0802C40DB801140EC3
:1023D0009801B40E38012C0FE000540FB8007C0FA8
:1023E0008800A40F4800F40F28FFFC0FC0F900007C
:1023F00000008C030800AE035000D603A000F703D2
:10240000F00018044001380490015904E0017A04F6
:1024100030029A048002BB04D002FC04700326053B
:10242000C003860630079709A00F750D201C520EB9
:10243000401F1F0F6022FF0F803E0400081D900008
:1024400058091C01B007A801C80634023006C002B2
:10245000C0054C036805D80318056404D004F004D3
:1024600098047C05600408063004940600042007E4
:10247000D003AC07A80338088003C40858035009E8
:102480003003DC090803680AD802F40AB002800BA2
:1024900088020C0C6002980C3002240DF801B00D7B
:1024A000C0013C0E8001C80E3001540FB800B40FBB
:1024B0002800E00F00000400401D900060091C018E
:1024C000B007A801D00634023806C002C8054C0384
:1024D0006805D80318056404D804F00498047C0542
:1024E000600408063004940600042007D003AC07FB
:1024F000A80338088003C408580350093003DC09D6
:102500000803680AE002F40AB802800B88020C0C87
:102510006002980C3002240DF801B00DC0013C0E91
:102520008001C80E3001540FB800B40F2800E00F2E
:10253000000004000016D800C006AC017805800237
:10254000C004540348042804E803FC049803D0059D
:102550005003A40618037807D8024C08A8022009E3
:102560007002F4093802C80A08029C0BD001700CF2
:102570009001440D5001180EF800EC0E8800C00FB9
:1025800000000400681D4C00500B94005809DC004A
:1025900050082401A8076C012807B401C006FC01FB
:1025A0007006440228068C02F005D402B8051C030C
:1025B000880564035805AC033005F40310053C049A
:1025C000E8048404C804CC04A804140590045C0541
:1025D0007004A4055804EC053804340620047C0675
:1025E0000804C406F0030C07D8035407C8039C076B
:1025F000B003E40798032C08800374087003BC0838
:102600005803040948034C09300394091803DC09F2
:102610000803240AF0026C0AE002B40AC802FC0AA9
:10262000B002440BA0028C0B8802D40B70021C0C6D
:102630005802640C4002AC0C2802F40C10023C0D51
:10264000F001840DD801CC0DB801140E98015C0E78
:102650007001A40E4801EC0E1801340FD8007C0F55
:102660008800C40F0800FC0F0000000000000000FC
:10267000000000000000000000000000000000005A
:10268000000000000000000000000000000000004A
:10269000401F450060094F0010095C00C0086B0036
:1026A00070087D0020089200D007AC008007CC00A5
:1026B0003007DE00E006230190065E014006A60119
:1026C000F005FF01A0056D025005F3020005960319
:1026D000B0045A046004400510044806C0036E07A5
:1026E0007003A8082003EB09D002230B8002410CE1
:1026F0003002390DE001040E9001A20E4001170FC7
:10270000F000690FA000A20F5000C60F0000DD0FFF
:10271000B0FFEB0F60FF0400700DD8004804AC015F
:1027200058038002D8025403800228043802FC04B3
:102730000002D005C801A4069801780770014C0872
:10274000480120091801F409F000C80AC8009C0BD0
:10275000A000700C7000440D3800180E0000EC0E44
:10276000A8FFC00FE8FE0400001B540060096400CD
:1027700010097400C008840070089C002008B8008C
:10278000D007D8008007000130072C01E00668015F
:102790009006AC0140060002F0056802A005E002C8
:1027A0005005740300052404B004F0046004DC0543
:1027B0001004E406C0030408700330092003780BFA
:1027C0008002600DE001A80E4001680FA000C00F5C
:1027D0000000E80F60FF0400801AD8009808AC01E0
:1027E0002007800250065403C80528045805FC043D
:1027F0000005D005B004A4066804780728044C0836
:10280000E8032009B003F4097003C80A38039C0BDD
:10281000F802700CB002440D6802180E0802EC0EAB
:102820008801C00F8800F00F00000000A00F5C00BE
:102830006009690010097900C0088C007008A200C6
:102840002008BD00D007DE008007050130073401F5
:10285000E0066D019006B20140060702F0056D0228
:10286000A005E80250057B0300052B04B004F80422
:102870006004EB06C003350920037F0B8002650D61
:10288000E001B00E40011D0FF000480FC8006C0FB2
:10289000A000ED0F60FFFE0F48FE4550523A312078
:1028A000004550523A30200053656C65637445789A
:1028B0007472756465723A003A00546172676574A7
:1028C00045787472005461726765744265643A00B9
:1028D0002A28D627662716270000000000008E262B
:1028E00082253225B6243A24EE2336231C151C14E7
:1028F0000000002243141F1F132E000000000000E0
:1029000000F10000000000000000C4000000000012
:10291000000000F00000000000000000C300000004
:102920000000000000F30000000000000000F400C0
:1029300000000000000000AF0000000000000000E8
:10294000AC0000000000000000F3000000000000E8
:1029500000005F00000000000000005B00000000BD
:1029600000000000570000000000000000F300001D
:10297000000000000000EE0000000000000000ED7C
:102980000000000000000000EB0015290C290329BD
:10299000FA283929302927291E295D2954294B294C
:1029A0004229812978296F29662900000004008ABC
:1029B000290000000400922900000004009A290068
:1029C00000000400A22957726F6E67206368656378
:1029D0006B73756D00BF29B829B129AA29000000C1
:1029E0003FCDCC4C3D0AD7A33B6F12033A000021E8
:1029F00010422063308440A550C660E770088129EA
:102A0000914AA16BB18CC1ADD1CEE1EFF131121081
:102A10000273325222B5529442F772D66239931839
:102A2000837BB35AA3BDD39CC3FFF3DEE36224438D
:102A30003420040114E664C774A44485546AA54B89
:102A4000B528850995EEE5CFF5ACC58DD553367221
:102A50002611163006D776F6669556B4465BB77AD9
:102A6000A719973887DFF7FEE79DD7BCC7C448E5AD
:102A7000588668A7784008611802282338CCC9ED29
:102A8000D98EE9AFF9488969990AA92BB9F55AD4C1
:102A90004AB77A966A711A500A333A122AFDDBDC79
:102AA000CBBFFB9EEB799B588B3BBB1AABA66C87CD
:102AB0007CE44CC55C222C033C600C411CAEED8FC9
:102AC000FDECCDCDDD2AAD0BBD688D499D977EB661
:102AD0006ED55EF44E133E322E511E700E9FFFBE19
:102AE000EFDDDFFCCF1BBF3AAF599F788F8891A9EC
:102AF00081CAB1EBA10CD12DC14EF16FE18010A1C3
:102B000000C230E3200450254046706760B98398C6
:102B100093FBA3DAB33DC31CD37FE35EF3B1029012
:102B200012F322D2323542145277625672EAB5CB92
:102B3000A5A89589856EF54FE52CD50DC5E234C362
:102B400024A01481046674476424540544DBA7FA66
:102B5000B79987B8975FE77EF71DC73CD7D326F2B2
:102B6000369106B01657667676154634564CD96DB2
:102B7000C90EF92FE9C899E9898AB9ABA944586502
:102B80004806782768C018E1088238A3287DCB5C06
:102B9000DB3FEB1EFBF98BD89BBBAB9ABB754A5452
:102BA0005A376A167AF10AD01AB32A923A2EFD0FD2
:102BB000ED6CDD4DCDAABD8BADE89DC98D267C07A2
:102BC0006C645C454CA23C832CE01CC10C1FEF3EA6
:102BD000FF5DCF7CDF9BAFBABFD98FF89F176E36F2
:102BE0007E554E745E932EB23ED10EF01E00401400
:102BF00054456E6453746F703A2564700053657465
:102C0000205A206F66667365743A2554326D6D00E4
:102C10005365742059206F66667365743A25543184
:102C20006D6D005365742058206F66667365743A45
:102C30002554306D6D00536574207072696E742078
:102C40006F666673657473005A2D70726F626520CB
:102C50006865696768743A257A68002544332033CB
:102C600020636F7069657300254432203220636FE2
:102C70007069657300254431203120636F707900DD
:102C8000254430204E6F20636F70696573002558AE
:102C9000352053656C65637420657874722E203618
:102CA000002558342053656C656374206578747210
:102CB0002E2035002558332053656C6563742065DC
:102CC0007874722E2034005475726E206578747298
:102CD0002E2036206F6666005475726E20657874FB
:102CE000722E2035206F6666005475726E206578EE
:102CF00074722E2034206F66660054656D702E202D
:102D000036203A2565352F25453502430054656D3B
:102D1000702E2035203A2565342F25453402430096
:102D200054656D702E2034203A2565332F254533A8
:102D3000024300202542436D6D00052565630200B6
:102D4000052565632F254563020000256F73002567
:102D50005566206D207072696E7465640025556635
:102D6000206D0025557400583A25783020593A25B1
:102D70007831004D756C3A20256F6D202020453A42
:102D8000257834005A3A2578322020427566203A58
:102D900020256F4200422565422F2545620200052D
:102DA0002565632F25456302422565422F2545622F
:102DB0000200256F73004275663A20256F42004D70
:102DC000756C3A20256F6D25252520FD2020204596
:102DD0003A202578346D00466C6F773AFD20256FD8
:102DE000662525252020205A3A257832000E2025F8
:102DF00065622F254562B020593A257831000A20B6
:102E00002565302F254530B020583A257830004CC4
:102E1000616E677561676500437573746F6D3A2500
:102E200042436D6D00437573746F6D00476C75653B
:102E300020737469636B00477265656E205045545A
:102E4000207461706500426C7565207061706572F8
:102E50002074617065004B6170746F6E004275691B
:102E60006C6454616B004E6F20636F6174696E67B0
:102E7000000042656420636F6174696E672073654A
:102E80007420746F0042656420636F6174696E67BB
:102E9000005374616E64627900457874727564657C
:102EA00072206A616D0074656D706572617475720F
:102EB0006573202E2E2E005761697420666F722074
:102EC0007461726765740065787472756465727395
:102ED0002E00436C69636B20746F207265686561B6
:102EE000740049676E6F7265204D31303620636D16
:102EF000642025466900536572766F20706F732ECB
:102F00003A20256F53004175746F6C6576656C3A95
:102F100020256C6C00436C69636B207768656E20BC
:102F2000646F6E650066696C616D656E74207570A6
:102F30002F646F776E00526F7461746520746F2018
:102F40006D6F7665004368616E67652066696C61C8
:102F50006D656E74004368616E67652066696C61BB
:102F60006D656E74005A2062616279737465702EAB
:102F70003A256F596D6D0053746F70205072696EF1
:102F80007400536C6F7742616E6700446561642022
:102F900074696D650041545820706F776572206FB9
:102FA0006E2F6F6666007072696E746564004669A4
:102FB0006C616D656E74207072696E74656400502A
:102FC00072696E74696E672074696D6500003A00FD
:102FD000206461797320005072696E74657220728A
:102FE000656164792E005344206361726420696EC8
:102FF0007365727465640053442063617264207267
:10300000656D6F76656400576169742072657472CE
:103010002E3A255855206D6D0057616974207465EE
:103020006D702E202558540243004C6576656C2047
:1030300064656C74610043616C63756C61746520D8
:103040006C6576656C696E6700536574205033005B
:1030500053657420503200536574205031005A205B
:1030600063616C69622E00536574205A3D300052D2
:1030700065736574206D6561732E0053686F7720EA
:103080006D6561732E00466C6F77206D756C2E2018
:103090003A256F66252525005370656564206D759A
:1030A0006C2E3A256F6D2525250020423A25656254
:1030B0002F25456202437E256F620045333A256520
:1030C000322F25453202437E256F320045323A25A4
:1030D00065312F25453102437E256F310045313A58
:1030E0002565302F25453002437E256F3000204571
:1030F0003A2565632F25456302437E256F430042D1
:1031000075666665723A256F420055706C6F616432
:10311000696E672E2E2E006C6F6164656420662ECA
:1031200020454550524F4D00436F6E66696775727A
:103130006174696F6E0073746F72656420696E20CC
:10314000454550524F4D00436F6E66696775726119
:1031500074696F6E00537465707065722064697372
:1031600061626C6564004B696C6C65640048656104
:1031700074696E67206265640048656174696E6792
:1031800020657874727564657200416374696F6E4E
:103190003A256C61005049440042616E6742616E9D
:1031A0006700592D4F66667365743A255879005843
:1031B0002D4F66667365743A25587800504944204F
:1031C0004D61783A255844004472697665204D6116
:1031D000783A25584D004472697665204D696E3AFB
:1031E00025586D0050494420443A25586400504900
:1031F0004420493A25586900436F6E74726F6C2001
:1032000050574D3A25584D004465616474696D65A9
:103210003A2558700050494420503A2558700043D0
:103220006F6E74726F6C3A25586800416476616EF7
:10323000636520717561643A255861004164766167
:103240006E6365206C696E3A25586C005374616238
:103250002E54696D653A25587700416363656C3A71
:10326000255841004D61782046523A255846005372
:10327000746172742046523A255866005374657022
:10328000732F4D4D3A255365004261756472617428
:10329000653A256F630047656E6572616C005B6D12
:1032A000696E5D20303D4F6666004469732E206173
:1032B000667465723A20256970004D61782E206928
:1032C0006E616374697665005B6D696E5D20303D8B
:1032D0004F6666004469732E2061667465723A20F9
:1032E000256973005374657070657220696E61633F
:1032F00074697665005365742066616E2066756C2E
:103300006C005365742066616E20373525252500D5
:103310005365742066616E20353025252500536580
:10332000742066616E203235252525005475726E35
:103330002066616E204F66660046616E2073706580
:1033400065643A2546732525250046616E20737015
:10335000656564004D696E3A25737A204D61783A4F
:1033600025735A005A3A257832206D6D004D696EEA
:103370003A257379204D61783A25735900593A25D9
:103380007831206D6D004D696E3A257378204D615E
:10339000783A25735800583A257830206D6D004DE5
:1033A000696E3A25737A204D61783A25735A005A2E
:1033B0003A257832206D6D004D696E3A257379207B
:1033C0004D61783A25735900593A257831206D6D51
:1033D000004D696E3A257378204D61783A2573580F
:1033E00000583A257830206D6D003120636C696398
:1033F0006B203D2031206D6D00453A257833206DDE
:103400006D00004D617820656E6473746F703A25AD
:10341000735A004D696E20656E6473746F703A253F
:10342000737A005A3A257832206D6D00004D61782C
:1034300020656E6473746F703A257359004D696E20
:1034400020656E6473746F703A25737900593A255C
:103450007831206D6D00004D617820656E64737465
:103460006F703A257358004D696E20656E647374F1
:103470006F703A25737800583A257830206D6D00CA
:10348000004D617820656E6473746F703A25735ACD
:10349000004D696E20656E6473746F703A25737A9F
:1034A000005A3A257832206D6D2025647A25645AB9
:1034B00000004D617820656E6473746F703A2573F7
:1034C00059004D696E20656E6473746F703A257390
:1034D0007900593A257831206D6D2025647925646D
:1034E0005900004D617820656E6473746F703A25E1
:1034F0007358004D696E20656E6473746F703A2561
:10350000737800583A257830206D6D202564782531
:10351000645800486F6D653A25665A00486F6D65BE
:10352000205A3A25665A00486F6D6520593A25663B
:103530005900486F6D6520583A256658004D6178EE
:103540003A25667A004D6178205A3A25667A004D10
:10355000617820593A256679004D617820583A25DE
:1035600066780046656564726174650044656C65E3
:1035700074652066696C65004D6F756E74206361BB
:10358000726400556E6D6F756E74206361726400B5
:10359000436F6E74696E7565207072696E74005049
:1035A00061757365207072696E74005072696E7413
:1035B0002066696C6500416E7469206F6F7A6500E2
:1035C0004D6F76652061667465723A254F61004DD6
:1035D000696E2E6469737420203A254F640042613D
:1035E000636B736C2E2020203A254F620052657465
:1035F000726163742020203A254F7200254F3220DB
:103600004F5053206661737400254F31204F505343
:1036100020636C617373696300254F30204F5053F2
:10362000206F6666004472792072756E3A25646474
:10363000004572726F7273203A25646500496E66A8
:103640006F2020203A256469004563686F202020A0
:103650003A25646F004C6F616420662E204545500A
:10366000524F4D0053746F726520746F2045455062
:10367000524F4D00416363656C65726174696F6E92
:10368000005A2D4A65726B203A25614A004A6572DC
:103690006B2020203A25616A004D6F76653A2561DE
:1036A0005A004D6F7665205A203A25615A004D6FB9
:1036B00076652059203A256159004D6F766520586E
:1036C000203A256158005072696E743A25617A007B
:1036D0005072696E74205A3A25617A005072696E90
:1036E0007420593A256179005072696E7420583AF5
:1036F00025617800536574204F726967696E0025F3
:1037000058322053656C65637420657874722E207E
:1037100033002558312053656C65637420657874D7
:10372000722E2032002558302053656C656374205A
:10373000657874722E2031005475726E206578742D
:10374000722E2033206F6666005475726E20657885
:1037500074722E2032206F6666005475726E20657A
:103760007874722E2031206F66660054656D702E5D
:103770002033203A2565322F254532024300546517
:103780006D702E2032203A2565312F2545310243B8
:103790000054656D702E2031203A2565302F254567
:1037A000300243004265642074656D703A2565629D
:1037B0002F254562024300457874722E20706F7386
:1037C0006974696F6E005A20706F732E2066617382
:1037D00074005A20706F736974696F6E005920709D
:1037E0006F732E2066617374005920706F73697453
:1037F000696F6E005820706F732E206661737400BD
:103800005820706F736974696F6E004469736162E8
:103810006C652073746570706572005365742074F4
:103820006F206F726967696E00436F6F6C646F77AA
:103830006E004C69676874733A256C6F005072654E
:103840006865617420414253005072656865617417
:1038500020504C4100486F6D65205A00486F6D65DF
:10386000205900486F6D65205800486F6D652061D4
:103870006C6C00486F6D652064656C746100446514
:1038800062756767696E6700534420636172640004
:10389000457874727564657200506F736974696FEE
:1038A0006E00436F6E66696775726174696F6E0052
:1038B000256F6500517569636B2073657474696E5B
:1038C0006773004261636B2001002A2A2A2A20457F
:1038D00052524F52202A2A2A2A004E6F2053442047
:1038E000636172640049646C65005072696E74694A
:1038F0006E67005072696E74696E672E2E2E004ED0
:103900006F00596573004E2F41004F6666004F6E81
:10391000000E390A3906390239FF38F338EA38E53A
:1039200038DA38CA38C338B438B038A23899389041
:103930003888387E3873386A3863385C3855384987
:10394000383D38323829381B380B380038F437E91D
:1039500037DD37D237C637B737A43791377E376B65
:10396000375A374937383725371237FF36F436E8B4
:1039700036DC36D036C636BA36AE36A23699368DF5
:1039800036813674366436553649363D36313625FD
:103990003619360936FC35ED35DE35CF35C035B64E
:1039A00035AB359F359035833578356C3563355972
:1039B000354F3545353D35323527351C3513350303
:1039C00035F334E334E234D234C234B234B134A106
:1039D0003491348134803477346734573456344DDD
:1039E000343D342D342C342334133403340234F96D
:1039F00033EA33E133D133C833B833AF339F33962F
:103A00003386337D336D33643354334A3339332C47
:103A1000331E3310330233F532E432D432C832BAB3
:103A200032AA329E32963289327C326F3264325AF6
:103A3000324C323C322B321F3215320832F831EE22
:103A400031E431D631C831BC31AF31A23199319531
:103A5000318A3179316D316631553147313631280E
:103A60003117310A31FF30EE30DD30CC30BB30AAB7
:103A700030983086307B306F3067305E3057305052
:103A800030493036302A3019300730F72FE62FD73B
:103A90002FD02FCE2FCD2FBF2FAE2FA62F952F8B10
:103AA0002F822F772F652F552F452F362F252F1536
:103AB0002F062FF62EE22ED22EC72EB72EA62E9927
:103AC0002E912E852E722E712E662E5D2E562E462E
:103AD0002E372E2C2E252E182E0F2EFE2DED2DD707
:103AE0002DBF2DB62DB22D9F2D952D842D732D67B5
:103AF0002D632D5D2D4F2D4B2D4A2D402D3A2D330D
:103B00002D202D0D2DFA2CE92CD82CC72CB42CA14E
:103B10002C8E2C802C752C682C5B2C482C362C235E
:103B20002C102CFD2BF12B00FF11390000000000A0
:103B30000000000000000000000000000000000085
:103B40000055495F414354494F4E5F484F4D4541F1
:103B50004C4C2000005344207072696E74207374C2
:103B60006F7070656420627920757365722E000035
:103B70007A2D70726F626520646964206E6F7420A4
:103B8000756E74726967676572206166746572200C
:103B9000676F696E67206261636B20746F20737456
:103BA00061727420706F736974696F6E2E00205992
:103BB0003A0020583A005A2D70726F62653A005AE6
:103BC0002D70726F6265206661696C6564007A2D84
:103BD00070726F62652074726967676572656420D0
:103BE0006265666F7265207374617274696E6720B6
:103BF00070726F62696E672E0000FCDF11241FBEB9
:103C0000CFEFD0E4DEBFCDBF21E1A0E9B2E001C03B
:103C10001D92A632B207E1F712E0A0E0B1E0E0EBBE
:103C2000F4ED01E00BBF02C007900D92A039B1077F
:103C3000D9F71DE1CEEFDDE104C02197FE010E941E
:103C4000AFE8CD3FD107C9F70E94B0DB0C9456EA2C
:103C50000C9400002F923F924F925F926F927F924E
:103C60008F929F92AF92BF92CF92DF92EF92FF928C
:103C70000F931F93CF93DF93CDB7DEB7CA58D10907
:103C80000FB6F894DEBF0FBECDBF8C01DC011696D7
:103C90008D919C911797893C910509F4A0C708F074
:103CA000F3C08335910509F423C408F081C08A313B
:103CB000910509F4F0C108F058C08531910509F467
:103CC000C6C108F03FC08330910510F40C94CF3288
:103CD0008630910510F40C945535449711F00C94EE
:103CE000CF321E8E19A28BEE91E00E944F9F60E0B2
:103CF00082E19FE00E9495B067E17FE0CE014E96A1
:103D00000E94F7AE19821C82CE014E960E94B3B07B
:103D10001092880A88E89AE09AAF89AF8DE1FE0197
:103D20007E96DE01119601900D928A95E1F760E092
:103D3000CE0101960E946E7F8DED91E00E944F9F13
:103D40000C9455358731910509F48BC108F485C170
:103D50008831910509F49BC1499711F00C94CF3239
:103D600080E00E9430D80C9455358032910509F4DA
:103D700098C280F48C31910509F4D7C108F4ADC123
:103D80008D31910511F40C9455354E9709F415C2F7
:103D90000C94CF328235910508F0A6C38035910589
:103DA00010F00C9455358A9709F4C3C20C94CF32A5
:103DB0008D36910509F405C530F58336910509F472
:103DC0002AC460F48535910509F4B5C308F495C398
:103DD0008C35910509F4D3C30C94CF328936910503
:103DE00009F4E2C430F48836910509F460C40C94F7
:103DF000CF328A36910509F4F9C58B36910509F45D
:103E000012C60C94CF328537910509F469C6F0F4D7
:103E10008237910509F45EC630F48F36910509F4B6
:103E200018C60C94CF328337910509F449C68437FC
:103E3000910511F00C94CF328BEC91E00E94BAC93D
:103E400087E591E00E94BAC90C9455358C389105EC
:103E500009F46EC478F48737910511F00C94CF32D1
:103E60000E94BB450E94AB670E94AB670E940C6634
:103E70000C9455358E3B910509F4FBC4883C9105A3
:103E800009F455C60C94CF328836B1E09B0711F483
:103E90000C94782D08F061C08D3D910511F40C94BF
:103EA000C22918F58D3C910509F477C750F4D80163
:103EB0002D913C918B3C910509F411C708F4D2C6B1
:103EC00026C78F3C910511F40C943D2910F40C94F5
:103ED000E928813D910511F40C948E298C3D9105C2
:103EE00011F40C94AD290C94CF328034B1E09B07CF
:103EF00011F40C94382DD8F48931F1E09F0711F4B6
:103F00000C94E12938F4823E910511F40C94D429E3
:103F10000C94CF328E3231E0930711F40C94FD29CA
:103F20008F32914011F40C94242A0C94CF328234B5
:103F300051E0950711F40C94542D10F40C943C2D81
:103F40008E35B1E09B0711F40C94692D83369140B6
:103F500011F40C946E2D0C94CF32853FF1E09F0745
:103F600011F40C940330C8F5823C31E0930711F44E
:103F70000C94F52FA8F4813951E0950711F40C94B5
:103F8000C22F8239A1E09A0711F40C94C52F803911
:103F9000914011F00C94CF320E94BB450C945535E2
:103FA000843CE1E09E0711F40C94FD2F10F40C9476
:103FB000F82F853C21E0920711F40C940030843FE7
:103FC000914011F00C94CF3280E00E94E09A8FE192
:103FD0009DE00E94A99F0C9455358B3542E09407D3
:103FE00011F40C947732D8F48835A2E09A0711F4D2
:103FF0000C94203238F4863F914011F40C94123026
:104000000C94CF328935F2E09F0711F40C942632DC
:104010008A35924011F40C9439320C94CF328F3897
:1040200033E0930768F48B3843E0940710F00C9466
:1040300055358A37934011F40C947B320C94CF326F
:10404000873E934011F40C94AD320C94CF32109211
:104050007B0F0E9451BE0C9455350E948DBE0C946E
:104060005535F8018081918197FD02C00C9455353A
:1040700060E082E19FE00E9495B0F801EE5AFF4FA8
:1040800060E0808191810E94D0BD0C9455350E94E2
:10409000C2BD0C945535D8018D919C91119792FD1C
:1040A00002C00C9455355E964D915D916D917C9159
:1040B000919780917C0F882311F40C94553540938F
:1040C000730F5093740F6093750F7093760F82E5A2
:1040D0009FE00E94BBA70C94553580917C0F8823EC
:1040E000F1F0C090730FD090740FE090750FF090C6
:1040F000760F8BEF91E00E94F99DC701B6010E94F7
:10410000929D40916F0F5091700F6091710F70915F
:10411000720F8CE99FE10E94E99E0C9455358DE069
:1041200092E00E944F9F0C945535F8018081918157
:1041300097FD02C00C945535EE5AFF4F0081118156
:1041400080917C0F882311F40C94553582E59FE013
:104150000E9487AF10927B0F60E082E19FE00E9497
:1041600095B06091560E7091570E26E5A80182E534
:104170009FE00E9433B381110BC08FE292E00E9456
:10418000F99DC8010E94869D0E94ED400C94553512
:1041900089EA90E00E941BD560E00E945CD081E03B
:1041A00080937D0F8DE192E00E94F99DC8010E94ED
:1041B000869D0E94ED400C945535D8018D919C91BF
:1041C00097FD02C00C94553560E082E19FE00E94AB
:1041D00095B0F801EE5AFF4F0081118180917C0F5C
:1041E000882311F40C94553510927B0F82E59FE0E3
:1041F0000E9487AFC8010E94C6BE882331F08BE1C0
:1042000097E10E944F9F0C94553519821C82609152
:10421000560E7091570E21E0A801CE0101960E9422
:1042200033B38823C1F18C818430A9F5CE01019686
:104230000E94B3B04C855D856E857F858C899D8994
:10424000AE89BF89481759076A077B0750F4CE012A
:1042500001960E94A8AA0097F1F0FC01208121118B
:104260000CC081E08C838A8182608A83CE010196B2
:104270000E941AD1882379F008C0253ED9F22E3247
:10428000C9F2838583FDD6CF06C0CE0101960E9478
:104290000CA68111B4CF8BE097E10E944F9F0C9444
:1042A0005535F8018081918197FD02C00C945535F8
:1042B00060E082E19FE00E9495B0F801EE5AFF4F66
:1042C000C080D18080917C0F882311F40C945535E7
:1042D00010927B0F82E59FE00E9487AF1E8E19A28D
:1042E00019821C82EE24E3948E010F5F1F4F9E0102
:1042F000255C3F4FA60165E37FE0CE014E960E940C
:10430000ACD1882381F0AE01455C5F4FB801CE018E
:104310004E960E946FB3882331F083E592E00E94AD
:104320004F9F0C94553583E492E00E944F9F0C946C
:104330005535D8012D913C91119733FD02C00C9455
:1043400055359296BC909297EB2C9396FC90E1E5B4
:10435000FFE04BE14E0F849190E08E159F0509F42C
:10436000BDC031964E13F7CFF7FCB8C032FFA3C0E3
:10437000F801868D978DA0A1B1A18F3F9105A10570
:10438000B10511F008F091C061E08B2D0E946EAC78
:10439000D8015E966C918B2D0E943EACF801A68CE4
:1043A000978CCA2CD92C61E08B2D0E946EACC11465
:1043B000D10409F464C0FFEFCF16D10409F461C041
:1043C000F701FF27EF59FE4DE4914E2F50E0FA011F
:1043D0003197EA30F10508F04EC0EA5BFF4F0C94CC
:1043E000AFE884B5806884BDA7BC4FC084B5806247
:1043F00084BDA8BC4AC08091800080688093800002
:104400008A2D992D90938900809388003EC08091D9
:1044100080008062809380008A2D992D90938B007C
:1044200080938A0032C08091B00080688093B00091
:10443000A092B3002AC08091B00080628093B00047
:10444000A092B40022C08091900080688093900078
:104450008A2D992D909399008093980016C0809191
:1044600090008062809390008A2D992D90939B00FC
:1044700080939A000AC020E8C216D10414F460E0C8
:1044800001C061E08B2D0E943EACB70184E49FE047
:104490000E942E9FD8015E966D917C915F978FE36D
:1044A0009FE00E94059F0C94553587E29FE00E9493
:1044B0009D9F0C94553562E08B2D0E946EACB70128
:1044C0008FE39FE00E942E9F8B2D0E9415ACBC01B4
:1044D00082E29FE00E94059F0C94553580EF9EE09C
:1044E0000E949D9F0C9455351092410D0C945535AA
:1044F00081E08093410D0C945535F80180819181C4
:1045000092FF12C0268D378D40A151A1A8EEB3E0D5
:104510000E94D0E460933701709338018093390191
:1045200090933A010C9455350E94BB4581E00E945E
:104530001D630C945535D8018D919C91119792FF74
:1045400014C05E962D913D914D915C919197A8EE8E
:10455000B3E00E94D0E46093330D7093340D8093E8
:10456000350D9093360D0C9455351092330D1092F5
:10457000340D1092350D1092360D0C945535F8010E
:10458000808183FF0CC04285538564857585409387
:10459000230150932401609325017093260184FF29
:1045A0000FC0D8011E964D915D916D917C915197F0
:1045B00040932701509328016093290170932A01A9
:1045C00085FF0DC0F80182899389A489B5898093FC
:1045D0002B0190932C01A0932D01B0932E010E94EA
:1045E000C263D8018C9186FD02C00C945535209190
:1045F0003F0D3091400D56968D919D910D90BC913F
:10460000A02DF90185879687A787B08B80810E94AE
:10461000DAC70C945535D801ED91FC911197F2FF52
:104620000DC05E962D913D914D915C919197A8EEB4
:10463000B3E00E94D0E46B017C0106C050E1C52EBE
:1046400057E2D52EE12CF12CE3FD5E9AF801808132
:1046500084FD5E9AD8018C9185FD159A0E94C5D47F
:10466000C60ED71EE81EF91E0E94C5D4A7019601EA
:10467000261B370B480B590BDA01C901803A9648C3
:10468000A140B10518F40E946263EECFD8018C916D
:1046900083FD5E98F801808184FD5E98D8018C913D
:1046A00085FD02C00C94553515980C9455350E9423
:1046B000D76EF82E81110C9455350E94C5D46093A5
:1046C000840A7093850A8093860A9093870A809162
:1046D000210283FF02C00C945535F801808191813D
:1046E00093FF02C00C94DB3292FF0AC0868D978D37
:1046F000A0A1B1A1892B8A2B8B2B11F40C94DB3256
:10470000D8018D919C9192FD02C00C9455359C016D
:104710002227317091FD02C00C94DF32F801EC5A6F
:10472000FF4F8081882311F40C9404330C94DF3202
:104730000E94D76EF82E81110C9455350E94C5D475
:104740006093840A7093850A8093860A9093870AFF
:104750008091210283FF02C00C945535D8018D91C0
:104760009C91119792FD02C00C94553590FF10C09A
:10477000FF24F39420E030E0A9015A966D917D91D9
:104780008D919C915D970E9434E718160CF0F12CE6
:10479000F801668D778D80A191A10E9435E34F2DA0
:1047A0000E94AAC30C945535D8018D919C9143E089
:1047B000969587954A95E1F781700E94F3400C9495
:1047C00055350E94D76EF82E81110C9455350E94F4
:1047D000C5D46093840A7093850A8093860A909367
:1047E000870A8091210283FF02C00C9455350E94F4
:1047F000BB45C0903F0DD090400DF8018081918164
:1048000091FF09C0EC5AFF4F2081211104C032EA08
:10481000C32E31E0D32E92FF20C090FF11C0FF24A1
:10482000F39420E030E0A901D8015A966D917D9172
:104830008D919C915D970E9434E718160CF0F12C35
:10484000F801668D778D80A191A10E9435E301E08A
:104850002F2DD6014C910E9460C40E94C5D4609354
:10486000840A7093850A8093860A9093870A0C9431
:1048700055358091210283FF02C00C94553582EAA0
:1048800090E00E941BD560E00E945CD00E9484CB27
:104890000E94BB45F8018081918192FF1CC090FF6E
:1048A0000DC0FF24F39420E030E0A901628D738DE8
:1048B000848D958D0E9434E718160CF0F12CD801E8
:1048C0005E966D917D918D919C9191970E9435E3BB
:1048D0004F2D0E94AAC32091610130916201409145
:1048E00063015091640160915D0170915E0180915E
:1048F0005F01909160010E94EAE46B017C0120E07D
:1049000030E0A9010E9434E7181664F420E030E09A
:1049100040E450E4C701B6010E942EE387FF0EC0B9
:104920000C94553520E030E040E450ECC701B6016E
:104930000E9434E7181614F40C9455350E94C5D41F
:104940006B017C018090610190906201A0906301F5
:10495000B090640120E030E040E05FE360915D01F1
:1049600070915E0180915F01909160010E94EBE483
:10497000A50194010E942EE387FF2AC020E030E0C9
:1049800048EC51E4C501B4010E9434E7181604F55F
:104990000E94C5D4DC01CB018C199D09AE09BF0969
:1049A000893E9340A105B10578F080E00E94F34074
:1049B0000E94C5D46B017C016093840A7093850AC0
:1049C0008093860A9093870A81E00E947141BACF52
:1049D0001092C10E0E94C5D46093840A7093850A18
:1049E0008093860A9093870A0C9455358091370DF1
:1049F00083FF02C00C945535D8018D919C9111977D
:104A000093FD02C00C94243392964D915D916D916B
:104A10007C919597413051056105710511F00C9419
:104A200024330C945535D8018D919C91119793FDA9
:104A300002C00C94303392968D919D910D90BC9153
:104A4000A02D0197A105B10511F00C9430330C9401
:104A50005535F8018081918192FF03C0868D0E94B7
:104A6000F265D8018D919C91119793FF13C0929696
:104A70008D919D910D90BC91A02D20912102181631
:104A800019061A061B0614F4822B02C081508223D9
:104A90000E94F2658091210283FD02C00C9455357D
:104AA00000E020E040E060E070E0CB010E9460C4E4
:104AB00040E060E070E0CB010E94AAC30C94553541
:104AC00088E49EE00E944F9F0E944B4A0E94CA6564
:104AD0000C94553582E49EE00E94903F0C9455352D
:104AE000F8018081918197FD02C00C945535EE5AF2
:104AF000FF4F908181812091110F24FD14C0A92FB7
:104B0000B82F81EC9EE030E02D91222339F0343132
:104B100029F03F5FFC012193CF01F6CFE32FF0E0B6
:104B2000EF53F14F10820E9484CB0C945535E091E5
:104B30003F0DF091400D8081D8014D915C91282F5F
:104B400051FF07C0F801EC5AFF4F9081911101C04D
:104B500080E0F801928192FF05C0C6A4D7A4E0A826
:104B6000F1A803C0C12CD12C760193FF07C0D80156
:104B7000D296CD90DD90ED90FC90D597082F10E067
:104B8000BFE78B9FF0011124E45EFD4FC082D1820C
:104B9000E282F382821306C08091300D9091310D34
:104BA0000E94CA3E20E030E0A901C701B6010E9480
:104BB0002EE3B801811106C086E19EE00E94059FA8
:104BC0000C9455358FEE9DE00E942E9F22E0B70198
:104BD000A6018AEE9DE00E94CC9E0C945535F8010A
:104BE000808183FF0CC04285538564857585409321
:104BF000320250933302609334027093350284FF83
:104C00000FC0D8011E964D915D916D917C91519789
:104C10004093360250933702609338027093390202
:104C200085FF0DC0F80142895389648975894093D5
:104C30003A0250933B0260933C0270933D0286FF20
:104C40000DC0F80186899789A08DB18D80933E02B1
:104C500090933F02A0934002B09341020E94C2632E
:104C60000C94553523FF0DC0F80182859385A485EA
:104C7000B5858093220290932302A0932402B093DF
:104C8000250224FF0DC0F80186859785A089B1898A
:104C90008093260290932702A0932802B0932902C2
:104CA00025FF0DC0F80182899389A489B589809375
:104CB0002A0290932B02A0932C02B0932D0226FF80
:104CC000CDCFF80186899789A08DB18D80932E0272
:104CD00090932F02A0933002B0933102BFCF32FFE6
:104CE00012C081E0D8015E964D915D916D917C91ED
:104CF00091974F3F51056105710509F480E080935C
:104D000091020C945535109291020C945535E09116
:104D10003F0DF091400D32FD02C0B99612C0F8016E
:104D2000868D978DA0A1B1A1B7FF02C00C94553517
:104D3000892B8A2B8B2B19F4EBECF1E002C0E7E511
:104D4000F1E023FF0BC0D8011A964D915D916D9152
:104D50007C911D97408F518F628F738F24FF0BC002
:104D6000D8011E964D915D916D917C915197448F24
:104D7000558F668F778F25FF0BC0D80152964D91C6
:104D80005D916D917C91559740A351A362A373A34C
:104D9000CF010E9419C40C9455356BE579E084E08D
:104DA00094E00E946BCA62E579E08BE490E00E9497
:104DB000539F43E06DE379E081E890E00E94739FA8
:104DC0006AE279E08DE790E00E94539F6CE079E021
:104DD0008FE490E00E94539F63EE78E083E590E0DB
:104DE0000E94539F44E06FEC78E083E090E00E94E3
:104DF000739F44E06BEB78E087E090E00E94739F44
:104E000044E067EA78E08BE090E00E94739F43E023
:104E10006BE878E08FE090E00E94739F43E06FE6DC
:104E200078E083E190E00E94739F43E063E578E0DF
:104E300087E190E00E94739F43E065E378E08BE1B7
:104E400090E00E94739F43E067E178E08FE190E09B
:104E50000E94739F43E069EF77E083E290E00E9455
:104E6000739F43E068EE77E087E290E00E94739FD3
:104E700043E065ED77E08FE290E00E94739F43E0AE
:104E800066EC77E085E890E00E94739F43E067EB73
:104E900077E089E890E00E94739F43E068EA77E05A
:104EA0008DE890E00E94739F43E066E977E081E936
:104EB00090E00E94739F43E064E877E085E990E02A
:104EC0000E94739F43E062E777E089E990E00E94E7
:104ED000739F43E062E677E08DE990E00E94739F64
:104EE00043E062E577E081EA90E00E94739F43E04F
:104EF00062E477E085EA90E00E94739F43E065E218
:104F000077E083E390E00E94739F43E068E077E0FE
:104F100087E390E00E94739F43E06BEE76E08BE3C3
:104F200090E00E94739F43E067EC76E08FE390E0AF
:104F30000E94739F43E063EA76E083E490E00E947E
:104F4000739F43E06FE776E087E490E00E94739FF1
:104F500043E068E676E080E094E00E94739F43E0DF
:104F600064E576E088E293E00E94739F43E066E3A5
:104F700076E081EA93E00E94739F43E061E276E08D
:104F80008CE293E00E94739F43E068E076E088E45F
:104F900093E00E94739F43E062EF75E080E293E04C
:104FA0000E94739F43E06CED75E084E293E00E9401
:104FB000739F43E06CEC75E080E393E00E94739F85
:104FC00043E06CEB75E084E393E00E94739F43E061
:104FD0006CEA75E088E393E00E94739F43E06CE91C
:104FE00075E08CE393E00E94739F43E06CE875E00A
:104FF00080E493E00E94739F43E06CE775E084E4F3
:1050000093E00E94739F43E06AE575E08CE094E0D2
:105010000E94739F43E068E375E080E194E00E94A2
:10502000739F43E066E175E084E194E00E94739F22
:105030006FEF74E080E793E00E946BCA68EE74E063
:105040008AE690E00E946BCA66ED74E08BE690E021
:105050000E946BCA64EC74E08CE790E00E946BCA1B
:1050600043E065EB74E08CE690E00E94739F43E0C0
:1050700066EA74E080E790E00E94739F43E067E98E
:1050800074E084E790E00E94739F6DE774E088E726
:1050900090E00E946BCA6AE574E08CEF93E00E9496
:1050A0006BCA43E063E474E080EE93E00E94739F78
:1050B00043E06BE274E088EE93E00E94739F43E06C
:1050C00064E174E08CEE93E00E94739F43E06FEE26
:1050D00073E080EF93E00E94739F43E069ED73E01B
:1050E00088EF93E00E94739F43E06CEC73E088ECE0
:1050F00090E00E94739F43E067EB73E08CEC90E0DC
:105100000E94739F43E061EA73E080ED90E00E94AB
:10511000739F43E06BE873E084ED90E00E94739F1F
:1051200068E773E088ED90E00E946BCA6AE673E07E
:1051300089ED90E00E946BCA6CE573E085EF90E02A
:105140000E946BCA44E067E473E08AED90E00E943D
:10515000739F44E06CE373E08EED90E00E94739FD8
:1051600044E061E373E082EE90E00E94739F6BE1A4
:1051700073E086EE90E00E946BCA6AE073E087EE0F
:1051800090E00E94539F69EF72E08BEE90E00E94E6
:10519000539F68EE72E082E291E00E94539F6FECB1
:1051A00072E08FEE90E00E948FCA69EA72E08AEFA7
:1051B00090E00E948FCA63E872E08CEF90E00E945A
:1051C0008FCA65E672E08EEF90E00E946BCA0C9485
:1051D0005535F801808191819C0122273A70211573
:1051E0003A40B9F4F801EC5AFF4F2081213011F414
:1051F0000C94363310F00C94433392FF0AC0D8015C
:105200005E966C915E9792968D919C9193970E9479
:1052100083E40E94B999682F88E690E0C657DF4F73
:105220006883CA58D0400E9465E4C657DF4F688142
:10523000CA58D040681721F088E690E00E9483E4C5
:10524000D80192964D915D916D917C919597485CB6
:1052500051096109710981E04835524061057105C4
:1052600008F080E00E94B59FE0913F0DF091400D65
:1052700080810E94DAC70C945535F801808183FF44
:105280000CC042855385648575854093470D5093C6
:10529000480D6093490D70934A0D86FF11C020910F
:1052A0003F0D3091400DF80186899789A08DB18D11
:1052B000F901838F948FA58FB68F80810E94DAC702
:1052C000D8018C9185FF0EC052968D919D910D90C5
:1052D000BC91A02D8093430D9093440DA093450D58
:1052E000B093460D4091470D5091480D6091490D86
:1052F00070914A0D22E084EE9DE00E94B19E4091A3
:10530000430D5091440D6091450D7091460D22E082
:105310008CED9DE00E94CC9E0C945535F801808167
:10532000918192FD02C00C94553561E0068D178D78
:1053300020A131A18091370D012B022B032B19F4F1
:1053400060E08D7F01C082608093370D70E08FEC4C
:105350009DE00E94059F0C945535D8018D919C913C
:10536000119792FF07C05E968D919D910D90BC9113
:10537000A02D04C084E690E0A0E0B0E00E94423F8F
:105380000C945535F8018081918192FF05C0868D7E
:10539000978DA0A1B1A104C084E690E0A0E0B0E0A8
:1053A0000E94CA3E0C945535D8018D919C919C0168
:1053B00022273C7021153C4011F00C9455350C947B
:1053C0006B33F801808183FF08C00E94DC408DEBC5
:1053D0009DE00E944F9F0C94553582E89DE00E940D
:1053E000A99F80E00E941D6368EC70E080E090E07F
:1053F0000E948BD48FB7F894FFCFD8012D913C91A8
:1054000011978091110F32FF0AC05E964D915D9108
:105410006D917C919197452B462B472B19F0806815
:1054200091E002C08F7790E08093110F992331F0C3
:105430008BE69DE00E944F9F0C94553581E59DE0E1
:105440000E944F9F0C945535F8010190F081E02D9A
:10545000E696FFAFEEAFE697F2FF06C0D8015E9684
:10546000ED90FC905F9703C026E9E22EF12CE696C2
:10547000EEADFFADE697F3FF06C0D80192962D90F2
:105480003C90939702C0212C312CF801828182FF3D
:105490000BC066A577A580A991A90E9440E6A596B4
:1054A0007FAF6EAFA59706C025E030E0A5963FAF71
:1054B0002EAFA5971214130434F02114310431F0E7
:1054C000212C312C03C022242394312CD22CB7015F
:1054D000FF0C880B990B0E9435E3A8966FAFA89735
:1054E000A9967FAFA997AA968FAFAA97AB969FAFC1
:1054F000AB97F101EE0FFF1FE659FD4F00811181BF
:105500000E94C5D44B015C01D80194962C9130E0E7
:1055100035952795C901330FAA0BBB0B6B968CAF42
:105520009DAFAEAFBFAF6B97A596AEADBFADA59724
:10553000A530B1054CF055976CF024E130E0A5960C
:105540003FAF2EAFA59706C0E5E0F0E0A596FFAF10
:10555000EEAFA59781EF99E00E94A99F0E94226F6C
:10556000D0921301D801EC91F0E0E85CF24F9496F0
:105570008C9180832114310421F480911A0280934C
:105580001B026B962CAD3DAD4EAD5FAD6B976F962C
:105590002CAF3DAF4EAF5FAF6F97C258DF4F8882E1
:1055A0009982AA82BB82CE57D040CA57DF4F8882E9
:1055B0009982AA82BB82C658D040AC961FAEAC97E7
:1055C000AD961FAEAD9730EAAE963FAFAE9741E4D1
:1055D000AF964FAFAF97E0961FAEE097E1961FAE44
:1055E000E19750EAE2965FAFE29781E4E3968FAFEE
:1055F000E397EE961CAE1DAE1EAE1FAEEE97EA967A
:105600001CAE1DAE1EAE1FAEEA97C12CD12C76018A
:10561000CE57DF4F188219821A821B82C258D0409F
:1056200091E0E4969FAFE497A7961FAE1EAEA797B2
:10563000A1E0A093DD0DC8010E9485C1F801F681AB
:10564000A096FFAFA097D8011796BC91A196BFAFC7
:10565000A197F801F085A296FFAFA297D8011996FD
:10566000BC91A396BFAFA3970E94C5D42B013C0168
:10567000A0962FADA097A1963FADA197A2964FAD52
:10568000A297A3965FADA397E0966FADE097E196E2
:105690007FADE197E2968FADE297E3969FADE397FA
:1056A0000E942EE387FF18C0A096EFADA097E0966A
:1056B000EFAFE097A196FFADA197E196FFAFE1971D
:1056C000A2962FADA297E2962FAFE297A3963FAD99
:1056D000A397E3963FAFE397A0962FADA097A1962F
:1056E0003FADA197A2964FADA297A3965FADA397AA
:1056F000AC966FADAC97AD967FADAD97AE968FADD6
:10570000AE97AF969FADAF970E942EE387FD18C06E
:10571000A0964FADA097AC964FAFAC97A1965FAD5A
:10572000A197AD965FAFAD97A2968FADA297AE96BB
:105730008FAFAE97A3969FADA397AF969FAFAF974E
:10574000E496AFADE497AA2309F46BC0A8962FADF9
:10575000A897A9963FADA997AA964FADAA97AB96E1
:105760005FADAB97A0966FADA097A1967FADA197C7
:10577000A2968FADA297A3969FADA3970E9434E700
:1057800018160CF0C4C0D301C20188199909AA09DE
:10579000BB092114310429F04CED55E060E070E0C4
:1057A00004C044EC59E060E070E0481759076A070C
:1057B0007B0708F0ACC0F8012081E22FF0E0E85C44
:1057C000F24F68962FAD68976C963FAD6C97231B90
:1057D0002083CE57DF4F88839983AA83BB83C25827
:1057E000D040A8964FADA897E0964FAFE097A99606
:1057F0005FADA997E1965FAFE197AA968FADAA97A3
:10580000E2968FAFE297AB969FADAB97E3969FAFD3
:10581000E397C258DF4F488259826A827B82CE5713
:10582000D040A8962FADA897A9963FADA997AA9664
:105830004FADAA97AB965FADAB97A0966FADA09713
:10584000A1967FADA197A2968FADA297A3969FAD8B
:10585000A3970E942EE387FD02C00C940635D30166
:10586000C201C258DF4F288139814A815B81CE57FE
:10587000D040821B930BA40BB50B2114310409F407
:1058800056C748EB5BE060E070E0481759076A07CD
:105890007B0710F00C940635A7964EAD5FADA79729
:1058A000452B09F049C7D801EC91F0E0E85CF24FD4
:1058B0006C968FAD6C976896BFAD68978B0F8083A1
:1058C000A796EEADFFADA7973196A796FFAFEEAFC7
:1058D000A797A896FFADA897AC96FFAFAC97A996EF
:1058E0002FADA997AD962FAFAD97AA963FADAA97CA
:1058F000AE963FAFAE97AB964FADAB97AF964FAF6F
:10590000AF975301420151E0E4965FAFE49720E086
:1059100030E040E252E4A8966FADA897A9967FAD1B
:10592000A997AA968FADAA97AB969FADAB970E9409
:10593000EBE49B01AC01A0966FADA097A1967FAD63
:10594000A197A2968FADA297A3969FADA3970E9411
:1059500034E7181644F481E899E00E949D9F0E9464
:10596000226F0C945535D301C201CA57DF4F2881ED
:1059700039814A815B81C658D040821B930BA40BAE
:10598000B50B893E9340A105B10558F080E00E9417
:10599000F340CA57DF4F488259826A827B82C658D9
:1059A000D040440C551C661C771CC258DF4F8881C0
:1059B0009981AA81BB81CE57D040481A590A6A0AF8
:1059C0007B0A481859086A087B0891E849169FE441
:1059D000590692E16906710440F084E699E00E945C
:1059E0009D9F0E94226F0C945535A796AEADBFAD1A
:1059F000A797A596EEADFFADA597EA17FB07A4F50F
:105A000081E892E20E94A99F0E94226FE596FFAD75
:105A1000E597F3FD02C00C945535D8015896CD9208
:105A2000DD92ED92FC925B97EA962CAD3DAD4EADCA
:105A30005FADEA975C962D933D934D935C935F9792
:105A4000EE962CAD3DAD4EAD5FADEE9790962D939D
:105A50003D934D935C93939781E013968C9380E0F4
:105A60000E94E09A0C94553581E00E9495D9E0CDD2
:105A700081E00E9426471BC080E00E942647D80193
:105A80008D919C91119792FD02C00C9455355E96B4
:105A90008D919D910D90BC91A02D0097A105B10510
:105AA00009F0B9C70C94553580E00E94C645F8014D
:105AB0008081918192FFF9C7868D978DA0A1B1A1B8
:105AC000892B8A2B8B2B09F4F0C780E00E94E09A87
:105AD000ECC78FE39DE00E944F9FE7C7D8018D91EF
